(window.webpackJsonp=window.webpackJsonp||[]).push([[66],{277:function(e,a,t){"use strict";t.r(a);var c=t(2),n=Object(c.a)({},(function(){var e=this,a=e.$createElement,t=e._self._c||a;return t("ContentSlotsDistributor",{attrs:{"slot-key":e.$parent.slotKey}},[t("h1",{attrs:{id:"txdecoder"}},[t("a",{staticClass:"header-anchor",attrs:{href:"#txdecoder"}},[e._v("#")]),e._v(" TxDecoder")]),e._v(" "),t("div",{staticClass:"custom-block tip"},[t("p",{staticClass:"custom-block-title"},[e._v("View Repo:")]),e._v(" "),t("p",[t("a",{attrs:{href:"https://github.com/blockparty-sh/cpp_slp_graph_search/tree/master/txdecoder",target:"_blank",rel:"noopener noreferrer"}},[e._v("https://github.com/blockparty-sh/cpp_slp_graph_search/tree/master/txdecoder"),t("OutboundLink")],1)])]),e._v(" "),t("p",[e._v("txdecoder provides an easy way to parse and debug SLP transactions.")]),e._v(" "),t("div",{staticClass:"language- extra-class"},[t("pre",{pre:!0,attrs:{class:"language-text"}},[t("code",[e._v("$ ./txdecoder 010000000184c663467c098d1058f4f49e28f1afc7ad28c849067531992fa97a8e66574ae1020000006a473044022045cd384954a2e3f0446e72345b87e117b1e553970a33c3ad135f5f2911bf804502205f07693f399b7922bd16f3318c392887234c89aff8b76ecb3fed0d18f6abfdd9412102fde03670ccc6950b76029ef131280b604df9b44d4520cd9df9023aade2082b07feffffff030000000000000000466a04534c500001010747454e4553495304484f4e4b09484f4e4b20484f4e4b17544845205245414c20484f4e4b20534c5020544f4b454e4c0001004c0008000000174876e80022020000000000001976a91453c0098567382f003437a016edcc47de1436746988acf27f0100000000001976a9145afb7e1a1216788d7c69c509269d75b8750e750688ac78cc0800\n")])])]),t("h4",{attrs:{id:"result"}},[t("a",{staticClass:"header-anchor",attrs:{href:"#result"}},[e._v("#")]),e._v(" Result:")]),e._v(" "),t("div",{staticClass:"language- extra-class"},[t("pre",{pre:!0,attrs:{class:"language-text"}},[t("code",[e._v("txid:             7f8889682d57369ed0e32336f8b7e0ffec625a35cca183f4e81fde4e71a538a1\nversion:          1\nlock_time:        576632\ntoken_type:       1\ntokenid:          7f8889682d57369ed0e32336f8b7e0ffec625a35cca183f4e81fde4e71a538a1\ntransaction_type: GENESIS\n\nticker:           HONK\nname:             HONK HONK\ndocument_uri:     THE REAL HONK SLP TOKEN\ndocument_hash:    [none]\ndecimals:         0\nhas_mint_baton:   0\n\ninputs:\n#0\n    txid: e14a57668e7aa92f9931750649c828adc7aff1289ef4f458108d097c4663c684\n    vout: 2\n\noutputs:\n#0\n    value:        0\n    scriptpubkey: 6a04534c500001010747454e4553495304484f4e4b09484f4e4b20484f4e4b17544845205245414c20484f4e4b20534c5020544f4b454e4c0001004c0008000000174876e800\n    mint_baton\n\n#1\n    value:        546\n    scriptpubkey: 76a91453c0098567382f003437a016edcc47de1436746988ac\n    slp_amount:   100000000000\n\n#2\n    value:        98290\n    scriptpubkey: 76a9145afb7e1a1216788d7c69c509269d75b8750e750688ac\n")])])])])}),[],!1,null,null,null);a.default=n.exports}}]);